{
  "contractName": "MyContract",
  "abi": [
    {
      "inputs": [],
      "name": "admin",
      "outputs": [
        {
          "internalType": "address payable",
          "name": "",
          "type": "address"
        }
      ],
      "stateMutability": "view",
      "type": "function",
      "constant": true
    },
    {
      "inputs": [],
      "name": "balanceWei",
      "outputs": [
        {
          "internalType": "uint256",
          "name": "",
          "type": "uint256"
        }
      ],
      "stateMutability": "view",
      "type": "function",
      "constant": true
    },
    {
      "inputs": [
        {
          "internalType": "uint256",
          "name": "",
          "type": "uint256"
        }
      ],
      "name": "tikets",
      "outputs": [
        {
          "internalType": "address",
          "name": "",
          "type": "address"
        }
      ],
      "stateMutability": "view",
      "type": "function",
      "constant": true
    },
    {
      "inputs": [],
      "name": "transferbalanceToAdmin",
      "outputs": [],
      "stateMutability": "nonpayable",
      "type": "function"
    },
    {
      "inputs": [
        {
          "internalType": "address payable",
          "name": "newAdmin",
          "type": "address"
        }
      ],
      "name": "changeAdmin",
      "outputs": [],
      "stateMutability": "nonpayable",
      "type": "function"
    },
    {
      "inputs": [
        {
          "internalType": "uint256",
          "name": "tiketIndex",
          "type": "uint256"
        }
      ],
      "name": "buyTiket",
      "outputs": [
        {
          "internalType": "bool",
          "name": "",
          "type": "bool"
        }
      ],
      "stateMutability": "payable",
      "type": "function",
      "payable": true
    },
    {
      "inputs": [],
      "name": "getTikets",
      "outputs": [
        {
          "internalType": "address[16]",
          "name": "",
          "type": "address[16]"
        }
      ],
      "stateMutability": "view",
      "type": "function",
      "constant": true
    },
    {
      "inputs": [],
      "name": "getContractBalance",
      "outputs": [
        {
          "internalType": "uint256",
          "name": "",
          "type": "uint256"
        },
        {
          "internalType": "uint256",
          "name": "",
          "type": "uint256"
        }
      ],
      "stateMutability": "view",
      "type": "function",
      "constant": true
    }
  ],
  "bytecode": "0x608060405260006010557350d3b84a2b1787b7704dd50c67733b6b5b293629601160006101000a81548173ffffffffffffffffffffffffffffffffffffffff021916908373ffffffffffffffffffffffffffffffffffffffff16021790555034801561006a57600080fd5b50610b2f8061007a6000396000f3fe60806040526004361061007b5760003560e01c80638f2839701161004e5780638f283970146101305780638f62744414610159578063be4fb14d14610184578063f851a440146101af5761007b565b806307e58839146100805780634d63e206146100975780636f9fb98a146100d45780638aeeae4914610100575b600080fd5b34801561008c57600080fd5b506100956101da565b005b3480156100a357600080fd5b506100be60048036038101906100b99190610682565b6102df565b6040516100cb91906106f0565b60405180910390f35b3480156100e057600080fd5b506100e9610315565b6040516100f792919061071a565b60405180910390f35b61011a60048036038101906101159190610682565b610324565b604051610127919061075e565b60405180910390f35b34801561013c57600080fd5b50610157600480360381019061015291906107b7565b6104a3565b005b34801561016557600080fd5b5061016e610577565b60405161017b919061088f565b60405180910390f35b34801561019057600080fd5b506101996105f8565b6040516101a691906108ab565b60405180910390f35b3480156101bb57600080fd5b506101c46105fe565b6040516101d191906108d5565b60405180910390f35b601160009054906101000a900473ffffffffffffffffffffffffffffffffffffffff1673ffffffffffffffffffffffffffffffffffffffff163373ffffffffffffffffffffffffffffffffffffffff161461026a576040517f08c379a00000000000000000000000000000000000000000000000000000000081526004016102619061094d565b60405180910390fd5b601160009054906101000a900473ffffffffffffffffffffffffffffffffffffffff1673ffffffffffffffffffffffffffffffffffffffff166108fc6010549081150290604051600060405180830381858888f193505050501580156102d4573d6000803e3d6000fd5b506000601081905550565b600081601081106102ef57600080fd5b016000915054906101000a900473ffffffffffffffffffffffffffffffffffffffff1681565b60008047601054915091509091565b60008082101580156103375750600f8211155b61034057600080fd5b66470de4df8200003414610389576040517f08c379a0000000000000000000000000000000000000000000000000000000008152600401610380906109b9565b60405180910390fd5b600073ffffffffffffffffffffffffffffffffffffffff16600083601081106103b5576103b46109d9565b5b0160009054906101000a900473ffffffffffffffffffffffffffffffffffffffff1673ffffffffffffffffffffffffffffffffffffffff161461042d576040517f08c379a000000000000000000000000000000000000000000000000000000000815260040161042490610a54565b60405180910390fd5b346010600082825461043f9190610aa3565b92505081905550336000836010811061045b5761045a6109d9565b5b0160006101000a81548173ffffffffffffffffffffffffffffffffffffffff021916908373ffffffffffffffffffffffffffffffffffffffff16021790555060019050919050565b601160009054906101000a900473ffffffffffffffffffffffffffffffffffffffff1673ffffffffffffffffffffffffffffffffffffffff163373ffffffffffffffffffffffffffffffffffffffff1614610533576040517f08c379a000000000000000000000000000000000000000000000000000000000815260040161052a9061094d565b60405180910390fd5b80601160006101000a81548173ffffffffffffffffffffffffffffffffffffffff021916908373ffffffffffffffffffffffffffffffffffffffff16021790555050565b61057f610624565b60006010806020026040519081016040528092919082601080156105ee576020028201915b8160009054906101000a900473ffffffffffffffffffffffffffffffffffffffff1673ffffffffffffffffffffffffffffffffffffffff16815260200190600101908083116105a4575b5050505050905090565b60105481565b601160009054906101000a900473ffffffffffffffffffffffffffffffffffffffff1681565b604051806102000160405280601090602082028036833780820191505090505090565b600080fd5b6000819050919050565b61065f8161064c565b811461066a57600080fd5b50565b60008135905061067c81610656565b92915050565b60006020828403121561069857610697610647565b5b60006106a68482850161066d565b91505092915050565b600073ffffffffffffffffffffffffffffffffffffffff82169050919050565b60006106da826106af565b9050919050565b6106ea816106cf565b82525050565b600060208201905061070560008301846106e1565b92915050565b6107148161064c565b82525050565b600060408201905061072f600083018561070b565b61073c602083018461070b565b9392505050565b60008115159050919050565b61075881610743565b82525050565b6000602082019050610773600083018461074f565b92915050565b6000610784826106af565b9050919050565b61079481610779565b811461079f57600080fd5b50565b6000813590506107b18161078b565b92915050565b6000602082840312156107cd576107cc610647565b5b60006107db848285016107a2565b91505092915050565b600060109050919050565b600081905092915050565b6000819050919050565b61080d816106cf565b82525050565b600061081f8383610804565b60208301905092915050565b6000602082019050919050565b610841816107e4565b61084b81846107ef565b9250610856826107fa565b8060005b8381101561088757815161086e8782610813565b96506108798361082b565b92505060018101905061085a565b505050505050565b6000610200820190506108a56000830184610838565b92915050565b60006020820190506108c0600083018461070b565b92915050565b6108cf81610779565b82525050565b60006020820190506108ea60008301846108c6565b92915050565b600082825260208201905092915050565b7f4e6f206572657320656c2061646d696e00000000000000000000000000000000600082015250565b60006109376010836108f0565b915061094282610901565b602082019050919050565b600060208201905081810360008301526109668161092a565b9050919050565b7f496e737566696369656e7420616d6f756e74206f6620424e4200000000000000600082015250565b60006109a36019836108f0565b91506109ae8261096d565b602082019050919050565b600060208201905081810360008301526109d281610996565b9050919050565b7f4e487b7100000000000000000000000000000000000000000000000000000000600052603260045260246000fd5b7f45737465207469636b6574207961206861207369646f20636f6d707261646f00600082015250565b6000610a3e601f836108f0565b9150610a4982610a08565b602082019050919050565b60006020820190508181036000830152610a6d81610a31565b9050919050565b7f4e487b7100000000000000000000000000000000000000000000000000000000600052601160045260246000fd5b6000610aae8261064c565b9150610ab98361064c565b9250827fffffffffffffffffffffffffffffffffffffffffffffffffffffffffffffffff03821115610aee57610aed610a74565b5b82820190509291505056fea26469706673582212203dee59c3b233b1d98271d10b628857530496f74c9348ecac804d4f835f2f324964736f6c634300080a0033",
  "immutableReferences": {},
  "source": "\npragma solidity ^0.8.0;\n\ncontract MyContract {\n\n    address[16] public tikets;\n    uint public balanceWei = 0;\n    address payable public admin  = payable(0x50d3b84a2b1787b7704DD50c67733b6b5B293629);\n    function transferbalanceToAdmin () public {\n        require(msg.sender == admin, \"No eres el admin\");\n        \n        admin.transfer(balanceWei);\n        balanceWei = 0;\n    }\n    //cambiar admin\n    function changeAdmin( address payable newAdmin) public  {\n        require(msg.sender == admin, \"No eres el admin\");\n        admin = payable(newAdmin);\n\n        \n        \n    }\n\n\n    function buyTiket(uint tiketIndex) payable public returns (bool) {\n        // Comprobacin\n        require(tiketIndex >= 0 && tiketIndex <= 15);\n\n        require(msg.value == 0.02 ether, \"Insuficient amount of BNB\");\n      \n\n        // Verificar que el ticket no ha sido comprado previamente\n        require(tikets[tiketIndex] == address(0), \"Este ticket ya ha sido comprado\");\n\n        balanceWei += msg.value;\n        tikets[tiketIndex] = msg.sender;\n\n        return true;\n    }\n       \n    function getTikets() public view returns (address[16] memory ) {\n        return tikets;\n    }\n // obtener balance  \n function getContractBalance() public view returns (uint256, uint256) {\n        return (address(this).balance, balanceWei);\n    }\n    \n\n\n}\n\n\n\n\n\n\n",
  "sourcePath": "/Users/tonny/blockchain/venta de tikets/MyContracts/contracts/MyContracts.sol",
  "compiler": {
    "name": "solc",
    "version": "0.8.10+commit.fc410830.Emscripten.clang"
  },
  "schemaVersion": "3.4.16",
  "updatedAt": "2024-01-10T11:27:02.937Z",
  "networkType": "ethereum",
  "devdoc": {
    "kind": "dev",
    "methods": {},
    "version": 1
  },
  "userdoc": {
    "kind": "user",
    "methods": {},
    "version": 1
  }
}