{
  "contractName": "MyContract",
  "abi": [
    {
      "inputs": [],
      "name": "admin",
      "outputs": [
        {
          "internalType": "address payable",
          "name": "",
          "type": "address"
        }
      ],
      "stateMutability": "view",
      "type": "function",
      "constant": true
    },
    {
      "inputs": [],
      "name": "balanceWei",
      "outputs": [
        {
          "internalType": "uint256",
          "name": "",
          "type": "uint256"
        }
      ],
      "stateMutability": "view",
      "type": "function",
      "constant": true
    },
    {
      "inputs": [
        {
          "internalType": "uint256",
          "name": "",
          "type": "uint256"
        }
      ],
      "name": "ticketReservations",
      "outputs": [
        {
          "internalType": "address",
          "name": "reservedBy",
          "type": "address"
        },
        {
          "internalType": "uint256",
          "name": "timestamp",
          "type": "uint256"
        }
      ],
      "stateMutability": "view",
      "type": "function",
      "constant": true
    },
    {
      "inputs": [
        {
          "internalType": "uint256",
          "name": "",
          "type": "uint256"
        }
      ],
      "name": "tikets",
      "outputs": [
        {
          "internalType": "address",
          "name": "",
          "type": "address"
        }
      ],
      "stateMutability": "view",
      "type": "function",
      "constant": true
    },
    {
      "inputs": [
        {
          "internalType": "uint256",
          "name": "tiketIndex",
          "type": "uint256"
        },
        {
          "internalType": "address",
          "name": "newOwner",
          "type": "address"
        }
      ],
      "name": "transferTicket",
      "outputs": [],
      "stateMutability": "nonpayable",
      "type": "function"
    },
    {
      "inputs": [
        {
          "internalType": "uint256",
          "name": "tiketIndex",
          "type": "uint256"
        }
      ],
      "name": "bookTiket",
      "outputs": [],
      "stateMutability": "nonpayable",
      "type": "function"
    },
    {
      "inputs": [],
      "name": "transferbalanceToAdmin",
      "outputs": [],
      "stateMutability": "nonpayable",
      "type": "function"
    },
    {
      "inputs": [
        {
          "internalType": "address payable",
          "name": "newAdmin",
          "type": "address"
        }
      ],
      "name": "changeAdmin",
      "outputs": [],
      "stateMutability": "nonpayable",
      "type": "function"
    },
    {
      "inputs": [
        {
          "internalType": "uint256",
          "name": "tiketIndex",
          "type": "uint256"
        }
      ],
      "name": "buyTiket",
      "outputs": [
        {
          "internalType": "bool",
          "name": "",
          "type": "bool"
        }
      ],
      "stateMutability": "payable",
      "type": "function",
      "payable": true
    },
    {
      "inputs": [],
      "name": "getTikets",
      "outputs": [
        {
          "internalType": "address[16]",
          "name": "",
          "type": "address[16]"
        }
      ],
      "stateMutability": "view",
      "type": "function",
      "constant": true
    },
    {
      "inputs": [],
      "name": "getContractBalance",
      "outputs": [
        {
          "internalType": "uint256",
          "name": "",
          "type": "uint256"
        },
        {
          "internalType": "uint256",
          "name": "",
          "type": "uint256"
        }
      ],
      "stateMutability": "view",
      "type": "function",
      "constant": true
    }
  ],
  "bytecode": "0x608060405260006011557350d3b84a2b1787b7704dd50c67733b6b5b293629601260006101000a81548173ffffffffffffffffffffffffffffffffffffffff021916908373ffffffffffffffffffffffffffffffffffffffff16021790555034801561006a57600080fd5b506114198061007a6000396000f3fe60806040526004361061009c5760003560e01c80636f9fb98a116100645780636f9fb98a146101855780638aeeae49146101b15780638f283970146101e15780638f6274441461020a578063be4fb14d14610235578063f851a440146102605761009c565b806307e58839146100a15780630b64b339146100b857806342ac3854146100f65780634d63e2061461011f578063679ebf1a1461015c575b600080fd5b3480156100ad57600080fd5b506100b661028b565b005b3480156100c457600080fd5b506100df60048036038101906100da9190610c61565b610390565b6040516100ed929190610cde565b60405180910390f35b34801561010257600080fd5b5061011d60048036038101906101189190610c61565b6103d4565b005b34801561012b57600080fd5b5061014660048036038101906101419190610c61565b61062c565b6040516101539190610d07565b60405180910390f35b34801561016857600080fd5b50610183600480360381019061017e9190610d4e565b610662565b005b34801561019157600080fd5b5061019a6107ae565b6040516101a8929190610d8e565b60405180910390f35b6101cb60048036038101906101c69190610c61565b6107bd565b6040516101d89190610dd2565b60405180910390f35b3480156101ed57600080fd5b5061020860048036038101906102039190610e2b565b610a82565b005b34801561021657600080fd5b5061021f610b56565b60405161022c9190610f03565b60405180910390f35b34801561024157600080fd5b5061024a610bd7565b6040516102579190610f1f565b60405180910390f35b34801561026c57600080fd5b50610275610bdd565b6040516102829190610f49565b60405180910390f35b601260009054906101000a900473ffffffffffffffffffffffffffffffffffffffff1673ffffffffffffffffffffffffffffffffffffffff163373ffffffffffffffffffffffffffffffffffffffff161461031b576040517f08c379a000000000000000000000000000000000000000000000000000000000815260040161031290610fc1565b60405180910390fd5b601260009054906101000a900473ffffffffffffffffffffffffffffffffffffffff1673ffffffffffffffffffffffffffffffffffffffff166108fc6011549081150290604051600060405180830381858888f19350505050158015610385573d6000803e3d6000fd5b506000601181905550565b60006020528060005260406000206000915090508060000160009054906101000a900473ffffffffffffffffffffffffffffffffffffffff16908060010154905082565b600081101580156103e65750600f8111155b610425576040517f08c379a000000000000000000000000000000000000000000000000000000000815260040161041c9061102d565b60405180910390fd5b600073ffffffffffffffffffffffffffffffffffffffff16600182601081106104515761045061104d565b5b0160009054906101000a900473ffffffffffffffffffffffffffffffffffffffff1673ffffffffffffffffffffffffffffffffffffffff16146104c9576040517f08c379a00000000000000000000000000000000000000000000000000000000081526004016104c0906110c8565b60405180910390fd5b600073ffffffffffffffffffffffffffffffffffffffff1660008083815260200190815260200160002060000160009054906101000a900473ffffffffffffffffffffffffffffffffffffffff1673ffffffffffffffffffffffffffffffffffffffff1614806105595750607860008083815260200190815260200160002060010154426105579190611117565b115b610598576040517f08c379a000000000000000000000000000000000000000000000000000000000815260040161058f90611197565b60405180910390fd5b60405180604001604052803373ffffffffffffffffffffffffffffffffffffffff1681526020014281525060008083815260200190815260200160002060008201518160000160006101000a81548173ffffffffffffffffffffffffffffffffffffffff021916908373ffffffffffffffffffffffffffffffffffffffff1602179055506020820151816001015590505050565b6001816010811061063c57600080fd5b016000915054906101000a900473ffffffffffffffffffffffffffffffffffffffff1681565b600082101580156106745750600f8211155b6106b3576040517f08c379a00000000000000000000000000000000000000000000000000000000081526004016106aa9061102d565b60405180910390fd5b3373ffffffffffffffffffffffffffffffffffffffff16600183601081106106de576106dd61104d565b5b0160009054906101000a900473ffffffffffffffffffffffffffffffffffffffff1673ffffffffffffffffffffffffffffffffffffffff1614610756576040517f08c379a000000000000000000000000000000000000000000000000000000000815260040161074d90611229565b60405180910390fd5b806001836010811061076b5761076a61104d565b5b0160006101000a81548173ffffffffffffffffffffffffffffffffffffffff021916908373ffffffffffffffffffffffffffffffffffffffff1602179055505050565b60008047601154915091509091565b60008082101580156107d05750600f8211155b6107d957600080fd5b66470de4df8200003414610822576040517f08c379a000000000000000000000000000000000000000000000000000000000815260040161081990611295565b60405180910390fd5b600073ffffffffffffffffffffffffffffffffffffffff166001836010811061084e5761084d61104d565b5b0160009054906101000a900473ffffffffffffffffffffffffffffffffffffffff1673ffffffffffffffffffffffffffffffffffffffff16146108c6576040517f08c379a00000000000000000000000000000000000000000000000000000000081526004016108bd90611301565b60405180910390fd5b60008060008481526020019081526020016000209050600073ffffffffffffffffffffffffffffffffffffffff168160000160009054906101000a900473ffffffffffffffffffffffffffffffffffffffff1673ffffffffffffffffffffffffffffffffffffffff16146109c7573373ffffffffffffffffffffffffffffffffffffffff168160000160009054906101000a900473ffffffffffffffffffffffffffffffffffffffff1673ffffffffffffffffffffffffffffffffffffffff16146109c6576040517f08c379a00000000000000000000000000000000000000000000000000000000081526004016109bd9061136d565b60405180910390fd5b5b600080848152602001908152602001600020600080820160006101000a81549073ffffffffffffffffffffffffffffffffffffffff0219169055600182016000905550503460116000828254610a1d919061138d565b925050819055503360018460108110610a3957610a3861104d565b5b0160006101000a81548173ffffffffffffffffffffffffffffffffffffffff021916908373ffffffffffffffffffffffffffffffffffffffff1602179055506001915050919050565b601260009054906101000a900473ffffffffffffffffffffffffffffffffffffffff1673ffffffffffffffffffffffffffffffffffffffff163373ffffffffffffffffffffffffffffffffffffffff1614610b12576040517f08c379a0000000000000000000000000000000000000000000000000000000008152600401610b0990610fc1565b60405180910390fd5b80601260006101000a81548173ffffffffffffffffffffffffffffffffffffffff021916908373ffffffffffffffffffffffffffffffffffffffff16021790555050565b610b5e610c03565b6001601080602002604051908101604052809291908260108015610bcd576020028201915b8160009054906101000a900473ffffffffffffffffffffffffffffffffffffffff1673ffffffffffffffffffffffffffffffffffffffff1681526020019060010190808311610b83575b5050505050905090565b60115481565b601260009054906101000a900473ffffffffffffffffffffffffffffffffffffffff1681565b604051806102000160405280601090602082028036833780820191505090505090565b600080fd5b6000819050919050565b610c3e81610c2b565b8114610c4957600080fd5b50565b600081359050610c5b81610c35565b92915050565b600060208284031215610c7757610c76610c26565b5b6000610c8584828501610c4c565b91505092915050565b600073ffffffffffffffffffffffffffffffffffffffff82169050919050565b6000610cb982610c8e565b9050919050565b610cc981610cae565b82525050565b610cd881610c2b565b82525050565b6000604082019050610cf36000830185610cc0565b610d006020830184610ccf565b9392505050565b6000602082019050610d1c6000830184610cc0565b92915050565b610d2b81610cae565b8114610d3657600080fd5b50565b600081359050610d4881610d22565b92915050565b60008060408385031215610d6557610d64610c26565b5b6000610d7385828601610c4c565b9250506020610d8485828601610d39565b9150509250929050565b6000604082019050610da36000830185610ccf565b610db06020830184610ccf565b9392505050565b60008115159050919050565b610dcc81610db7565b82525050565b6000602082019050610de76000830184610dc3565b92915050565b6000610df882610c8e565b9050919050565b610e0881610ded565b8114610e1357600080fd5b50565b600081359050610e2581610dff565b92915050565b600060208284031215610e4157610e40610c26565b5b6000610e4f84828501610e16565b91505092915050565b600060109050919050565b600081905092915050565b6000819050919050565b610e8181610cae565b82525050565b6000610e938383610e78565b60208301905092915050565b6000602082019050919050565b610eb581610e58565b610ebf8184610e63565b9250610eca82610e6e565b8060005b83811015610efb578151610ee28782610e87565b9650610eed83610e9f565b925050600181019050610ece565b505050505050565b600061020082019050610f196000830184610eac565b92915050565b6000602082019050610f346000830184610ccf565b92915050565b610f4381610ded565b82525050565b6000602082019050610f5e6000830184610f3a565b92915050565b600082825260208201905092915050565b7f4e6f206572657320656c2061646d696e00000000000000000000000000000000600082015250565b6000610fab601083610f64565b9150610fb682610f75565b602082019050919050565b60006020820190508181036000830152610fda81610f9e565b9050919050565b7f496e76616c6964207469636b657420696e646578000000000000000000000000600082015250565b6000611017601483610f64565b915061102282610fe1565b602082019050919050565b600060208201905081810360008301526110468161100a565b9050919050565b7f4e487b7100000000000000000000000000000000000000000000000000000000600052603260045260246000fd5b7f5469636b657420616c7265616479207075726368617365640000000000000000600082015250565b60006110b2601883610f64565b91506110bd8261107c565b602082019050919050565b600060208201905081810360008301526110e1816110a5565b9050919050565b7f4e487b7100000000000000000000000000000000000000000000000000000000600052601160045260246000fd5b600061112282610c2b565b915061112d83610c2b565b9250828210156111405761113f6110e8565b5b828203905092915050565b7f5469636b657420616c7265616479207265736572766564000000000000000000600082015250565b6000611181601783610f64565b915061118c8261114b565b602082019050919050565b600060208201905081810360008301526111b081611174565b9050919050565b7f596f7520617265206e6f7420746865206f776e6572206f66207468697320746960008201527f636b657400000000000000000000000000000000000000000000000000000000602082015250565b6000611213602483610f64565b915061121e826111b7565b604082019050919050565b6000602082019050818103600083015261124281611206565b9050919050565b7f496e737566696369656e7420616d6f756e74206f6620424e4200000000000000600082015250565b600061127f601983610f64565b915061128a82611249565b602082019050919050565b600060208201905081810360008301526112ae81611272565b9050919050565b7f45737465207469636b6574207961206861207369646f20636f6d707261646f00600082015250565b60006112eb601f83610f64565b91506112f6826112b5565b602082019050919050565b6000602082019050818103600083015261131a816112de565b9050919050565b7f5469636b6574206e6f7420726573657276656420666f722063616c6c65720000600082015250565b6000611357601e83610f64565b915061136282611321565b602082019050919050565b600060208201905081810360008301526113868161134a565b9050919050565b600061139882610c2b565b91506113a383610c2b565b9250827fffffffffffffffffffffffffffffffffffffffffffffffffffffffffffffffff038211156113d8576113d76110e8565b5b82820190509291505056fea26469706673582212206d19f67b4857e96603012d2a8291ee0f532af4bb732fbd5b793631508730f72964736f6c634300080a0033",
  "immutableReferences": {},
  "source": "\npragma solidity ^0.8.0;\n\ncontract MyContract {\n     struct TicketReservation {\n        address reservedBy;\n        uint256 timestamp;\n    }\n    mapping(uint => TicketReservation) public ticketReservations;\n    address[16] public tikets;\n    uint public balanceWei = 0;\n    address payable public admin  = payable(0x50d3b84a2b1787b7704DD50c67733b6b5B293629);\n    //transferir tiket\n    function transferTicket(uint tiketIndex, address newOwner) public {\n        require(tiketIndex >= 0 && tiketIndex <= 15, \"Invalid ticket index\");\n        require(tikets[tiketIndex] == msg.sender, \"You are not the owner of this ticket\");\n        tikets[tiketIndex] = newOwner;\n    }\n    //reservar tiket\n    function bookTiket(uint tiketIndex) public {\n        require(tiketIndex >= 0 && tiketIndex <= 15, \"Invalid ticket index\");\n        require(tikets[tiketIndex] == address(0), \"Ticket already purchased\");\n        require(ticketReservations[tiketIndex].reservedBy == address(0) || \n                (block.timestamp - ticketReservations[tiketIndex].timestamp) > 120, \"Ticket already reserved\");\n\n        ticketReservations[tiketIndex] = TicketReservation({\n            reservedBy: msg.sender,\n            timestamp: block.timestamp\n        });\n    }\n    function transferbalanceToAdmin () public {\n        require(msg.sender == admin, \"No eres el admin\");\n        \n        admin.transfer(balanceWei);\n        balanceWei = 0;\n    }\n    //cambiar admin\n    function changeAdmin( address payable newAdmin) public  {\n        require(msg.sender == admin, \"No eres el admin\");\n        admin = payable(newAdmin);\n    }\n     function buyTiket(uint tiketIndex) payable public returns (bool) {\n        // Comprobacin\n        require(tiketIndex >= 0 && tiketIndex <= 15);\n        require(msg.value == 0.02 ether, \"Insuficient amount of BNB\");\n        // Verifica que el ticket no ha sido comprado previamente\n        require(tikets[tiketIndex] == address(0), \"Este ticket ya ha sido comprado\");\n        TicketReservation storage reservation = ticketReservations[tiketIndex];\n        if (reservation.reservedBy != address(0)) {\n        //verifa que el comrpador sea la misma persona que l reserv\n        require(reservation.reservedBy == msg.sender, \"Ticket not reserved for caller\");\n        }\n        // Reset reservation after successful purchase\n        delete ticketReservations[tiketIndex];\n        balanceWei += msg.value;\n        tikets[tiketIndex] = msg.sender;\n        return true;\n    } \n    function getTikets() public view returns (address[16] memory ) {\n        return tikets;\n    }\n     // obtener balance  \n    function getContractBalance() public view returns (uint256, uint256) {\n        return (address(this).balance, balanceWei);\n    }\n\n\n}\n\n\n\n\n\n\n",
  "sourcePath": "/Users/tonny/Desktop/miw/segundo/nuevos estandar de la web/entrega solidity y react/venta de tikets/MyContracts/contracts/MyContracts.sol",
  "compiler": {
    "name": "solc",
    "version": "0.8.10+commit.fc410830.Emscripten.clang"
  },
  "schemaVersion": "3.4.16",
  "updatedAt": "2024-01-11T13:42:39.086Z",
  "networkType": "ethereum",
  "devdoc": {
    "kind": "dev",
    "methods": {},
    "version": 1
  },
  "userdoc": {
    "kind": "user",
    "methods": {},
    "version": 1
  }
}